:100000000C947C040C94A4040C94A4040C94A404F8
:100010000C94A4040C94A4040C94A4040C94A404C0
:100020000C94A4040C94A4040C94A4040C94291619
:100030000C94A4040C94A4040C94A4040C94A404A0
:100040000C9486160C94A4040C94A4040C94A4049C
:100050000C94A4040C94A4040C94A4040C94A40480
:100060000C94A4040C94A40439076007B407B407E3
:1000700053078C079607666F72206E6F207265615A
:100080006C20726561736F6E210A00617474616324
:100090006B73206F72206D616769630A006D757301
:1000A0007420626520666F7567687420776974686C
:1000B0000A003230204D697374657262616464694C
:1000C000656D656E0A000A0020496E73747275636F
:1000D00074696F6E730A0020202028632932303142
:1000E000352064654B6179002020201620496E730D
:1000F0007472756374696F6E730A0A002020202081
:10010000202020152053746172740A000A002020F8
:100110002020522E532E472E0A000A1520417474B7
:1001200061636B206F722016204D616769633F0029
:100130002020204D502000594F553A204850200093
:100140000A48494D3A20485020004D697374657241
:100150006261646469656D616E20000A2870726571
:100160007373201629004D6973746572626164644B
:1001700069656D616E2000416E6F74686572206103
:10018000737361696C616E74210A000A287072656C
:1001900073732016290044616D6167653A20004839
:1001A000652061747461636B732E2E2E0A000A0A37
:1001B0004845275320444541442121000A287072B4
:1001C0006573732016290044616D6167653A2000EC
:1001D0000A28707265737320172900202020527539
:1001E0006262697368210A0020594F5527524520E1
:1001F0004445414421210A0A000A2870726573733C
:10020000201729002020202020594159210A0020B0
:100210002020594F552057494E21210A0A0000003D
:10022000402400000000000000000000000000006A
:100230000E000000000000007F80000000000001B0
:10024000FFC0000000000003FFE000000000000706
:10025000FFE000000000C00FE3E000000007F00F27
:1002600001C00000001FF81E00800000003FFC1CC1
:100270000000000000783C3C0000000FC0F038385F
:10028000000000FFE0F00038000007F1E0FC00781B
:1002900000000F00E07FE0780FE00F01E03FF8780A
:1002A0000FE00F1FC01FFC780FE00FFF8001FE78EA
:1002B0000FE00F7E00001E380FE00F0781E00E38C0
:1002C00000E00F03C1E00E3C00E00F01C0F01E3E55
:1002D00000E00301E0FEFE1F01E00000F07FFC0FE4
:1002E000C7E00000001FF80FFFE000000003F00768
:1002F000FFE0000000000003FFC00000000000005D
:10030000FF00000000410000000800000041000064
:100310000008000001C9594330AA00000255854475
:1003200048AC00000251554448AA000001CD4C934E
:10033000326A0000000000800000000000000100A0
:10034000000003053F213F1208120A100A0E1C0E7E
:100350000C1E0C141A14161F161E131E1E1B1E1E16
:100360001F1E3F213F3A2F3A173D173F213F181FCD
:1003700002040A041F0E04040E1F0A1F0A0E0E1F99
:1003800004110E2E252E2F2A2E262929021F02089F
:100390001F08150E04040E150E15151B151B04065B
:1003A00004040C040000000017000300031F0A1FD0
:1003B00016371A1904130A153A000300000E11111A
:1003C0000E000A040A040E040030000404040010A5
:1003D000001804031F111F121F101D151711151FE0
:1003E00007041F17151D1F151D01011F1F151F17BE
:1003F000151F000A00003200040A110A0A0A110A35
:10040000040115020E11171E051E1F150A0E110AF2
:100410001F110E1F15111F05010E111D1F041F11A5
:100420001F1108100F1F041B1F10101F061F1E0492
:100430000F0E110E1F09060E112E1F051A12150997
:10044000011F011F101F0F180F1F0C1F1B041B0380
:100450001C03191513001F11030418111F000201BA
:10046000022020200001020C121E1F120C0C12127E
:100470000C121F0C1A14041E05242A1E1F021C1421
:100480001D1020201D1F0814111F101E041E1E0207
:100490001C0C120C3E0A040C123E1E040214160A16
:1004A000020F120E101E0E100E1E081E120C122627
:1004B000281E322A26041E21001F00211E040102CC
:1004C000013F213F05077F4141417F3E5B4F5B3E3E
:1004D0003E6B4F6B3E183C783C18183C7E3C181C19
:1004E000577D571C1C5E7F5E1C007E43437E007E52
:1004F00073737E007E7F7F7E7F4141417F30483A2B
:10050000060E06297929067F4141417F60703F022E
:10051000042A1C361C2A7F3E1C080000081C3E7F53
:1005200014227F22143C3C3C7EFF18423C817E3EDC
:100530006375633E3E616B633E3E636B6B3E0402DC
:100540007F020410207F201008082A1C08081C2A9B
:100550000808143E554122637569756310181C180C
:1005600010040C1C0C04000000000000005F0000E0
:100570000007000700147F147F14042A7F2A102329
:100580001308646236495620500008070300001C17
:100590002241000041221C002A1C3E1C2A08083E61
:1005A000080800E060000008080808080060600013
:1005B0000060100804033E5149453E00427F400060
:1005C00062514949462141494D331814127F102781
:1005D000454545393C4A49493041211109073649C9
:1005E000494936064949291E00002400000080645C
:1005F00000000814224100141414141400412214A1
:100600000802015909063E415D594E7C1211127CC7
:100610007F494949363E414141227F4141221C7F69
:10062000494949417F090909013E414151327F0849
:1006300008087F00417F41002041413F017F0814AD
:1006400022417F404040407F020C027F7F0204082D
:100650007F3E4141413E7F090909063E416141BE5D
:100660007F09192946264949493201017F01013F85
:100670004040403F1F2040201F3F4038403F631410
:1006800008146303047804036151494543007F4122
:10069000410003040810600041417F000402010290
:1006A0000480808080800003070800205454784034
:1006B0007F284444383844444428384444287F3808
:1006C00054545418087E09090218A4A49C787F0881
:1006D00004047800447D4000006080847D7F101019
:1006E000284400417F40007C047804787C0804049E
:1006F000783844444438FC1824241818242418FC5E
:100700007C080404080854545420043F4444203C0A
:100710004040207C1C2040201C3C4020403C442881
:100720001028444C9090907C4464544C440008360B
:10073000410000007F000000413608001804081046
:100740000C7F4141417F0A4E6F2053442063617208
:1007500064206F720A6E6F204C4F414445522E4800
:1007600045580A0A153A45786974001D20466C619F
:100770007368696E670A20206C6F616465722E2E43
:100780002E0A0A444F4E2754205455524E204F46AD
:100790004621006D560A0A504C454153450A5455AE
:1007A000524E204F4646004C4F572042415454452C
:1007B00052590A00175344001613780016131400F8
:1007C0001510200015201000540A03E181867F3E99
:1007D000186D830F0F0E0183866033186DC3198F58
:1007E0001803C38E6033186DE330CF1803C39E60C7
:1007F0003630CDE360CF3006C79E7E3E30CDB3604D
:10080000CF300CC6F6603330D9B660CF33CFCCF6DC
:100810006061B0DB1E60CF30D86CE6C061B0DB1E1B
:10082000618F19986CC6C063B19B0E330F0FB078FF
:10083000C6FF7E1F1B061E0F050089300802380206
:10084000497868140000F6E8DBCFC3B8AEA49B92E9
:100850008A827B746E68625C57524E4945413E3ACB
:100860003734312E2C29272523211F1D1C1A191737
:10087000161514131211100F0E0D0C0B0A09080790
:100880000645006801000005003801680100009776
:100890000893080101FF030101F7030000000800AD
:1008A0000201000003040700000000000000000136
:1008B00002040810204080010204081020010204F4
:1008C00008102004040404040404040202020202C6
:1008D0000203030303030300000000230026002992
:1008E0000000000000250028002B0000000000246C
:1008F0000027002A0000EC0811241FBECFEFD8E02B
:10090000DEBFCDBF11E0A0E0B1E0E0EAFFE302C04E
:1009100005900D92A634B107D9F723E0A6E4B1E023
:1009200001C01D92A43EB207E1F718E0C8EFD8E07D
:1009300004C02297FE010E940A1DC63FD107C9F7D5
:100940000E94A0180C94CE1F0C940000EF92FF920E
:100950000F931F93CF93DF93C0914E01D0914F011E
:1009600068E070E080E090E00E943F1A6B5F7F4F8C
:1009700079836883C2E0D0E000914E0110914F016D
:100980000C0F1D1FF8013297E080F18064E070E0E9
:1009900080E090E00E943F1A6F5F7F4F6E0D7F1DD9
:1009A000F801718360832296C832D10529F763E28A
:1009B00070E080E090E00E943F1A6F5B7F4F709381
:1009C0004D0160934C016CE070E080E090E00E948B
:1009D0003F1A6B5F7F4F70934B0160934A011092F7
:1009E00049011092480180EA91E0DF91CF911F9177
:1009F0000F91FF90EF900C948B0A81E080936A0135
:100A00000C94A60482E591E00E944A1364EC74E021
:100A100080EA91E00E94B20D40E252E06FE172E0A4
:100A200082E591E00E948F1181E08093A60182E52A
:100A300091E00E94680F0C94FD0480EA91E00E940E
:100A40008B0A64EC74E080EA91E00E94B20D6FE0E2
:100A500072E080EA91E00E94EF1864E072E080EAC0
:100A600091E00E94EF1862E473E080EA91E00E9456
:100A7000B20D69EF71E080EA91E00E94EF1880EA20
:100A800091E00C949C0A68EE71E080EA91E00E948B
:100A9000EF186BED71E080EA91E00E94EF1862E4DC
:100AA00073E080EA91E00E94B20D60ED71E080EAAF
:100AB00091E00E94EF1880EA91E00C949C0AEF927A
:100AC000FF920F931F93CF93DF9300D000D000D0FD
:100AD000CDB7DEB78C0185E090E090935101809313
:100AE000500110924701109246016FE271E0CE0171
:100AF00001960E94181B6CE071E0C8010E94461B21
:100B00008823E9F166E070E080E090E00E943F1AFF
:100B10007B016FE171E0CE0101960E942E1BE11472
:100B2000F10479F565E070E080E090E00E943F1A02
:100B30006115710551F46EE071E0CE0101960E94DD
:100B40002E1BE9E1EE2EF12C1CC06130710551F431
:100B50006AE171E0CE0101960E942E1B7CE0E72E37
:100B6000F12C0FC06230710561F46AE171E0CE01D1
:100B700001960E942E1B68E0E62EF12C02C0E12CAB
:100B8000F12C67E271E0C8010E94461B882379F1CD
:100B900069E271E0CE0101960E942E1B6BE070E0CD
:100BA00080E090E00E943F1A20914A0130914B0171
:100BB000232B29F07B0125E0E20EF11C08C060E345
:100BC00071E0CE0101960E942E1BE12CF12C809148
:100BD0004A0190914B01019797FD05C090934B01FD
:100BE00080934A0104C010924B0110924A01209157
:100BF0004E0130914F01E0914801F0914901EE0F13
:100C0000FF1FE20FF31F808191818E199F0991834D
:100C10008083E0914801F0914901EE0FFF1FE20F40
:100C2000F31F8081918197FF02C01182108280EAB8
:100C300091E00E948B0A64EC74E080EA91E00E94EB
:100C4000B20DBE016F5F7F4F80EA91E00E944F19A5
:100C500067EC71E080EA91E00E94EF184AE050E012
:100C6000B70180EA91E00E940C1A62E473E080EA26
:100C700091E00E94B20D6CEB71E080EA91E00E947D
:100C8000EF188091480190914901880F991FE091D8
:100C90004E01F0914F01E80FF91F80819181892B5E
:100CA00019F564EC74E080EA91E00E94B20D6EEAFE
:100CB00071E080EA91E00E94EF18809148019091E4
:100CC00049010196909349018093480121E030E069
:100CD0003093470120934601449731F482E090E03D
:100CE000909347018093460180EA91E00E949C0A1C
:100CF000CE0101960E94AA1A26960FB6F894DEBF7E
:100D00000FBECDBFDF91CF911F910F91FF90EF905C
:100D10000895CF92DF92EF92FF9286E090E0909359
:100D20005101809350018091460190914701892B98
:100D300009F04FC0809148019091490165E070E051
:100D40000E94B31C882777FD8095982F0E943F1A38
:100D50006D5F7F4F8F4F9F4F0E943F1A6B017C0149
:100D600080EA91E00E948B0A64EC74E080EA91E0F2
:100D70000E94B20D6FE971E080EA91E00E94EF18E5
:100D800066E971E080EA91E00E94EF184AE050E0E5
:100D9000B60180EA91E00E940C1A62E473E080EAF6
:100DA00091E00E94B20D6BE871E080EA91E00E9450
:100DB000EF1880914C0190914D018C199D099093F1
:100DC0004D0180934C0197FF04C010924D01109289
:100DD0004C018091460190914701019791F580EA7D
:100DE00091E00E948B0A62E473E080EA91E00E9445
:100DF000B20D67E771E080EA91E00E94EF1866E6C5
:100E000071E080EA91E00E94EF18609148017091D2
:100E100049016F5F7F4F4AE050E080EA91E00E9415
:100E20000C1A62E473E080EA91E00E94B20D6BE577
:100E300071E080EA91E0FF90EF90DF90CF900C940A
:100E4000EF18FF90EF90DF90CF900895CF93DF934E
:100E500000D000D000D0CDB7DEB7E0915001F091C6
:100E60005101E730F10508F087C0EC5CFF4F0C94AE
:100E7000081D64E08CE591E00E94120A882341F08D
:100E800081E090E090935101809350010E94A6046C
:100E900065E08CE591E00E94120A882309F46CC099
:100EA00084E090E05CC064E08CE591E00E94120A6E
:100EB000882309F461C010925101109250015CC066
:100EC00064E08CE591E00E94120A882371F06CE0E6
:100ED00071E0CE0101960E94181BCE0101960E947E
:100EE0005F05CE0101960E94AA1A65E08CE591E0AB
:100EF0000E94120A882309F43FC067E271E0CE0124
:100F000001960E94181BCE0101960E945F05CE013A
:100F100001960E94AA1A30C065E08CE591E00E941B
:100F2000120A882349F10E94890626C065E08CE5F3
:100F300091E00E94120A8823F9F080914C0190916F
:100F40004D01892B19F483E090E009C0809146019E
:100F5000909147018230910511F081E090E09093EB
:100F600051018093500108C065E08CE591E00E943A
:100F7000120A81110E94A60426960FB6F894DEBFCD
:100F80000FBECDBFDF91CF91089580EA91E00E941E
:100F90008B0A62E473E080EA91E00E94B20D6AE499
:100FA00071E080EA91E00E94EF1860914801709131
:100FB00049016F5F7F4F4AE050E080EA91E00E9474
:100FC0000C1A60E471E080EA91E00E94EF188091D1
:100FD000480190914901880F991FE0914E01F091CD
:100FE0004F01E80FF91F608171814AE050E080EA0B
:100FF00091E00E940C1A67E371E080EA91E00E94A0
:10100000EF1860914C0170914D014AE050E080EA88
:1010100091E00E94041A60E371E080EA91E00E948E
:10102000EF1860914A0170914B014AE050E080EA6C
:1010300091E00E940C1A6AE171E080EA91E00C9460
:10104000EF1880914801909149019C01220F331FB4
:10105000E0914E01F0914F01E20FF31F20813181A9
:10106000232B29F4019690934901809348010C9415
:10107000C50780EA91E00E948B0A64EC74E080EA84
:1010800091E00E94B20D6EE071E080EA91E00E9472
:10109000EF186CE071E080EA91E00E94EF1862E4E2
:1010A00073E080EA91E00E94B20D6CEF70E080EA9C
:1010B00091E00E94EF1868EE70E080EA91E00E94F3
:1010C000EF1867ED70E080EA91E00C94EF1880EA89
:1010D00091E00E948B0A64EC74E080EA91E00E9447
:1010E000B20D68EC70E080EA91E00E94EF1866ECC7
:1010F00070E080EA91E00E94EF1862E473E080EA19
:1011000091E00E94B20D62EB70E080EA91E00E94F3
:10111000EF186DE970E080EA91E00E94EF186BE84B
:1011200070E080EA91E00E94EF1866E770E080EAE4
:1011300091E00C94EF1882E591E00E9494108823CE
:1011400009F449C08091500190915101823091057C
:1011500099F03CF4009769F0019799F40E942108F6
:1011600010C08330910559F0049759F40E94670824
:1011700008C00E94390805C00E941D0502C00E94D7
:10118000430564E08CE591E00E94120A811121C0C0
:1011900065E08CE591E00E94120A81111AC066E0B8
:1011A0008CE591E00E94120A8823A9F064EC74E0B7
:1011B00080EA91E00E94B20D40E252E06EE172E0FE
:1011C00082E591E00E948F1110925101109250011E
:1011D00008950C94260708951092A3011092A2017D
:1011E0008BE391E09093A1018093A00188E290E0CD
:1011F0000E94AF1890934F0180934E010895CF93B2
:10120000CFB7F8948091D801811116C061E08AE0CF
:101210000E94401861E08AE00E9407188CB5806146
:101220008CBD8CB580648CBD61E08DE00E94071898
:1012300061E08BE00E9407188091D8018F5F809356
:10124000D801CFBFCF91089521E0FC0120830895FC
:1012500070E085E00C947F17AF92BF92CF92DF923F
:10126000EF92FF920F931F93CF93DF93EC0189814D
:101270009A812FE0289F8001299F100D112485E17C
:101280000E946217800F911F24E0969587952A95FA
:10129000E1F79A8389832881222391F1AC81AD8083
:1012A000B12CC12CD12CE885F9857F0100E010E03C
:1012B0006E817F819B0140E050E08617970728F000
:1012C000BC01E817F90708F4BF0180E090E01F9225
:1012D0001F921F92AF930E94631A6B830F900F901F
:1012E0000F900F9070E085E0DF91CF911F910F91EB
:1012F000FF90EF90DF90CF90BF90AF900C947F174E
:10130000DF91CF911F910F91FF90EF90DF90CF90E1
:10131000BF90AF900895FC018CE39FE0938382839C
:1013200084E0818381E084870895CF93DF93EC018B
:101330008C858F7151F584E10E946217BC0188276A
:1013400077FD8095982F0E94941B26EE3FE34EEC8C
:1013500050E40E94201C0E94661B9B017B836A83D1
:101360006115710581F084E08983FE0140E084818C
:1013700095812817390710F449830AC04F5F3296C8
:101380004430A9F702C08FEF89838C858F5F8C87EB
:10139000DF91CF910895FC0188E0808389E081830B
:1013A00087E0828386E0838384E0848382E0858390
:1013B00081E186830895DF92EF92FF920F931F934E
:1013C000CF93DF937C01EC0100E010E0DD24DA94A0
:1013D00062E088810E94071888810E947618F701D0
:1013E000E00FF11F892B21F487818F5F878308C06D
:1013F0008781882349F08F3F11F4178201C0D7827B
:1014000060E088810E9407180F5F1F4F2196073008
:101410001105F1F6DF91CF911F910F91FF90EF90A1
:10142000DF900895FC01E60FF11D81E09781913076
:1014300009F080E008958EBD00000DB407FEFDCFD9
:101440008EB50895643508F047C0403308F044C0B5
:10145000FC01878D242F259525952595E62FFF27BF
:10146000E7FDF0954770823091F4DF01A752BE4F3F
:1014700084E52802A00DB11D11248C9190E0042E6A
:1014800002C0959587950A94E2F780958170811145
:1014900012C084E52802E00DF11D1124E752FE4F31
:1014A00081E090E0042E01C0880F0A94EAF780954D
:1014B0009081982310C084E52802E00DF11D1124CD
:1014C000E752FE4F81E090E0042E01C0880F0A949D
:1014D000EAF79081982B908308951F93CF93DF9321
:1014E000EC01162FF89460E08E850E9440188F85DD
:1014F00018161CF460E00E944018812F0E941B0AFD
:101500008F8518161CF461E00E9440187894DF91D2
:10151000CF911F91089528EF31E0E9EDF1E0DF016F
:10152000A9011D9241505040E1F7DC0119961C922F
:1015300019971A961C920895DF92EF92FF920F93DB
:101540001F93CF93DF93EC0189EDE82E81E0F82E15
:10155000D12C6D2D6064CE010E946D0A60E8CE0131
:101560000E946D0A61E08E850E9440188F851816D2
:101570001CF460E00E94401800E010E0F701E00F6A
:10158000F11F80810E941B0A0F5F1F4F0435110558
:10159000A9F78F8518161CF461E00E944018D394B7
:1015A00084E5E80EF11C86E0D812D3CF60E4CE01CA
:1015B000DF91CF911F910F91FF90EF90DF900C94EE
:1015C0006D0AFC01678F60A30895FC01678F40A33B
:1015D0000895AF92BF92CF92DF92EF92FF920F9356
:1015E0001F93CF93DF93EC01162FF42EE22EA02F42
:1015F000BB27A7FDB095A41BB10947FDB395B7FF65
:1016000003C0B195A195B109EE2DFF27E7FDF09537
:10161000E11BF10917FDF395F7FF03C0F195E19583
:10162000F109BB24B394EA17FB0714F0B12C06C0F0
:101630008E2DE02E082F812F1F2DF82EE11634F469
:101640008F2DF02E082F812F1E2DE82ECE2CC11AA3
:10165000E02FFF27E7FDF095EF19F109F7FCF3956F
:10166000F7FF03C0F195E195F109AE2EDC2CC7FE22
:1016700003C0DD24D394DC0CD594F01614F401E0FF
:101680000FC00FEF0DC0BB2071F0412F6F2DCE01A9
:101690000E94220ADA18D7FE02C0F00EDC0C1F5F8F
:1016A000E1168CF703C04F2D612FF1CFDF91CF9161
:1016B0001F910F91FF90EF90DF90CF90BF90AF9070
:1016C00008950F93022F0150040F262F0E94E90A5C
:1016D0000F910895DF92EF92FF920F931F93CF9394
:1016E000DF937C01D42E162FC22FDD27C7FDD095A6
:1016F000C60FD11D67FDDA95812F992787FD90953B
:101700008C179D0744F4202F4D2D612FC7010E9497
:10171000610B1F5FF1CFDF91CF911F910F91FF9070
:10172000EF90DF9008950F932150260F042F0E9411
:10173000E90A0F9108958F929F92AF92BF92CF9234
:10174000DF92EF92FF920F931F93CF93DF93EC0101
:10175000E62ED42E122FCC24C394C21AB22EB194EA
:10176000BB0CF12C802F8470A82E802F8270982EB5
:10177000802F8870882E0170F1160CF04DC0C7FCC8
:1017800004C01150B394B394CB0CF3948F2D880FF5
:101790008F5FC80EAA2071F0412F4D0D6F2D6E0D79
:1017A000CE010E94220A4F2D4D0D612F6E0DCE01EC
:1017B0000E94220A992071F04D2D411B6F2D6E0D54
:1017C000CE010E94220A4D2D4F19612F6E0DCE01C0
:1017D0000E94220A882071F04F2D4D0D6E2D611B45
:1017E000CE010E94220A412F4D0D6E2D6F19CE01A0
:1017F0000E94220A002309F4BFCF4D2D4F196E2DF0
:10180000611BCE010E94220A4D2D411B6E2D6F19C6
:10181000CE010E94220AB0CFDF91CF911F910F918C
:10182000FF90EF90DF90CF90BF90AF909F908F9000
:1018300008958F929F92AF92BF92CF92DF92EF92D4
:10184000FF920F931F93CF93DF93EC01B62EA42E3C
:10185000122FDD24D394D21AC22EC194CC0CFF24B3
:10186000F394802F8170882E992493949E0C02709B
:101870008FEF8F0D8117C4F5D7FC04C01150C394AE
:10188000C394DC0C8F2D880F8F5FD80E882099F0C1
:10189000212F220F290D4A2D411B6F2D6B0DCE01DB
:1018A0000E94610B23E02E0D4A2D4F19612F6B0D05
:1018B000CE010E94610B002399F0212F220F290DE8
:1018C0004A2D411B6B2D6F19CE010E94610B23E045
:1018D0002E0D4A2D4F196B2D611BCE010E94610BFD
:1018E000F394E394E394C4CFDF91CF911F910F91D0
:1018F000FF90EF90DF90CF90BF90AF909F908F9030
:1019000008959F92AF92BF92CF92DF92EF92FF9293
:101910000F931F93CF93DF93EC01B62EF42EA22EDC
:10192000DE2CD194DD0C9D2C920E1E2D160F292D30
:10193000612F0E94930BCC24CA94C00ECF0C292D8A
:101940004C2D612FCE010E94930BD00EFE0C2D2D3D
:101950004F2D6B2DCE010E94610BBA0C6FEF6B0DFA
:101960002D2D4F2DCE010E94610B01E02E2D4F2D0C
:10197000612FCE010E949B0BDE2CD094DB0C02E089
:101980002E2D4F2D6D2DCE010E949B0BCE1804E005
:101990002E2D4C2D6D2DCE010E949B0B08E02E2D7F
:1019A0004C2D612FCE010E949B0BDF91CF911F9197
:1019B0000F91FF90EF90DF90CF90BF90AF909F90EE
:1019C0000895AF92BF92CF92DF92EF92FF920F9362
:1019D0001F93CF93DF93EC01A62EC42EB22EF02ED0
:1019E0001E2DE194EE0CD12ED60E2E2D2B0D6D2D2D
:1019F0000E946A0BFA94FE0CC10E6FEF6A0D6B0D1C
:101A0000611BEF2C01E0212F4C2DCE010E94190CFF
:101A100002E0212F4C2D6D2DCE010E94190CDF917B
:101A2000CF911F910F91FF90EF90DF90CF90BF90DB
:101A3000AF9008952F923F924F925F926F927F9254
:101A40008F929F92AF92BF92CF92DF92EF92FF92CE
:101A50000F931F93CF93DF9300D000D01F92CDB789
:101A6000DEB77C01262E542FF90104913196A49003
:101A70002901F2E04F0E511C10E0B801695F7F4F61
:101A800093E0759567959A95E1F77D836C8320E0E7
:101A900030E8C32ED12CB12C822F992787FD909549
:101AA000801791070CF046C0822F27FF02C087E005
:101AB000820F682E659465946594822F877887FFDE
:101AC00003C08150886F8F5F460102C09594879450
:101AD0008A95E2F7312C772467FC7094322F320D0F
:101AE000832D992787FD90958A159B050CF56C81B0
:101AF0007D81869FF001879FF00D969FF00D112448
:101B0000E60DF71DE40DF51DE491F0E0E821F92163
:101B1000EF2B61F0432D450F632FC70129833B83D2
:101B20005A830E94220A5A813B8129813394D8CF5B
:101B30002F5FB2CF0F900F900F900F900F90DF910B
:101B4000CF911F910F91FF90EF90DF90CF90BF90BA
:101B5000AF909F908F907F906F905F904F903F904D
:101B60002F900895DC01FB0184918F5F14968C9374
:101B700014973196E491EF5F1596EC9315976E5F8D
:101B80007F4F5E967C936E935D970895EF920F93CF
:101B9000CF93DF93EC014D876C872E87E88A0F8700
:101BA00081E088878F8F18A28F8362E473E0CE0173
:101BB0000E94B20D0E94FF088CB58F7D8CBD8CB544
:101BC0008C7F81608CBD8DB581608DBD8CB58C6046
:101BD0008CBD61E08D850E94071861E08C850E94B4
:101BE000071861E08E850E940718888918161CF472
:101BF00061E00E9407188F8518161CF461E00E94AE
:101C00000718888918166CF460E00E9440186AE092
:101C100070E080E090E00E94FF1661E088890E94F9
:101C200040188C85992787FD9095FC01ED53F74F5F
:101C3000E491F0E0EE0FFF1FEF51F74F2591349143
:101C40003C8B2B8BFC01E155F74F84918A8F8D855E
:101C5000992787FD9095FC01ED53F74FE491F0E053
:101C6000EE0FFF1FEF51F74F259134913A8B298BDF
:101C7000FC01E155F74F8491898F8F85992787FD66
:101C80009095FC01ED53F74FE491F0E0EE0FFF1F4C
:101C9000EF51F74F259134913E8B2D8BFC01E1558F
:101CA000F74F84918B8F8E85992787FD9095FC0146
:101CB000ED53F74FE491F0E0EE0FFF1FEF51F74FB8
:101CC00025913491388F2F8BFC01E155F74F84918A
:101CD0008C8F61E2CE010E946D0A64E1CE010E9408
:101CE0006D0A8B8587FF02C08FE78B876B856068E5
:101CF000CE010E946D0A60E2CE010E946D0A6CE086
:101D0000CE010E946D0ACE01DF91CF910F91EF902D
:101D10000C949C0A6F927F928F929F92AF92BF9287
:101D2000CF92DF92EF92FF920F931F93CF93DF93A7
:101D3000EC01162FF42EB02EEF8C64350CF081C020
:101D40008FE284170CF47DC0EC81F0E031970E9F98
:101D5000C0010F9F900D1124860F911D67FD9A956C
:101D6000181619060CF06DC08D81809FC0011124DA
:101D7000840F911D47FD9A95181619060CF061C045
:101D8000A62E962EC22ED12C8A2D811B992787FD37
:101D900090952C8130E0821793070CF051C02150B0
:101DA00031098217930779F0C29ED001C39EB00D0E
:101DB000D29EB00D1124A80FB91FED8DFE8DEA0F34
:101DC000FB1F749001C0712C8F2C6F2C282D2F19A4
:101DD000332727FD30958D8190E0281739076CF562
:101DE00070FE11C081E0B81206C0482D6A2DCE01E8
:101DF0000E94220A1EC00B2D2B2D462D692DCE01CF
:101E00000E946A0B16C088A19F8D891791F08F8F51
:101E100081E0B81206C0482D6A2DCE010E94220A28
:101E200007C00B2D2B2D462D692DCE010E946A0B6C
:101E3000EF8E76946B0C8394C9CF9B0CA394A4CFA4
:101E4000EF8EDF91CF911F910F91FF90EF90DF9078
:101E5000CF90BF90AF909F908F907F906F9008959C
:101E60000F93CF93DF93EC01262F6A3039F42D8145
:101E700098858A85299F800D112422C06D3011F12B
:101E800008854A8569850E948A0E48855C81298576
:101E9000549F200D112429878F81882399F033279F
:101EA00027FD309584E590E0459F80199109112424
:101EB000821793073CF49D818A85499F800D1124E8
:101EC0008A87198681E090E0DF91CF910F91089584
:101ED000CF92DF92EF92FF920F931F93CF93DF93F6
:101EE000EC010A8D1B8D009510950E94DC166B018C
:101EF0007C010E94DC16C094D094E094F09460952C
:101F0000709580959095C69E9001C79E300DD69E87
:101F1000300D1124209F7001219FF00C309FF00C98
:101F200011240980DA81C02D0E94DC16CE01860FB3
:101F3000971F8E0D9F1DDF91CF911F910F91FF90E5
:101F4000EF90DF90CF900C94371A8F929F92AF92C0
:101F5000BF92CF92DF92EF92FF920F931F93CF9396
:101F6000DF93EC015C0185E8A80EB11CD5018C91D2
:101F7000882309F44DC08C3018F41CE0181B01C0F4
:101F800010E0FE01EA5AFF4F81E080836E01BEE45B
:101F9000CB0ED11C60E0C6010E94E10A4E01E3E5D0
:101FA0008E0E911CD4018C9103E0080F9DE2F92E56
:101FB0004F2D481B410F23E0E22E24E560E0C601CF
:101FC0000E94E10C61E0C6010E94E10AF4018081F7
:101FD00003E0080F4F2D481B410F24E560E0C601C8
:101FE0000E94810CFE01E95AFF4F84E08083319604
:101FF000D4018C91181B115D1083CD57DF4F688180
:102000007981C6010E94EF18F5018081815080839B
:10201000DF91CF911F910F91FF90EF90DF90CF90C4
:10202000BF90AF909F908F9008950F931F93CF9381
:10203000DF93EC018C01025B1F4F40E061E0C801BF
:102040000E94E50AFE01E95AFF4FDE01AE5ABF4F7A
:1020500085E59C91891B808331961082698D613062
:1020600009F43CC028F0888D653008F04EC049C0A6
:10207000CE0185960E94CF1460E0CE010E9428090F
:10208000C8010E948B0AFE01EA5AFF4F81E080835B
:1020900067EA77E0C8010E94EF186A8D7B8D4AE0FD
:1020A00050E0C8010E94311A63E977E0C8010E943C
:1020B000EF18C8010E949C0A83B7817F846083BFA8
:1020C00083B7816083BF83B7816083BF889583B7FF
:1020D0008E7F83BF83B78E7F83BF21C0C059DF4F00
:1020E000488159816A817B814F7055276627772700
:1020F000483051056105710510F467E009C068E7D3
:1021000007C0882361F06B5F03C0882341F06FE252
:10211000C801DF91CF911F910F910C942219DF918B
:10212000CF911F910F9108958F929F92AF92BF927E
:10213000EF92FF920F931F93CF93DF93EC017C01FB
:102140000FE7E00EF11CF70180809180A280B38040
:102150000E94D01695018401061B170B280B390B22
:10216000B901A8015E011EE7A10EB11CF501808135
:1021700090E0A0E0B0E08E0106581F4F841795074D
:10218000A607B70750F4F80180819181A281B3813D
:10219000892B8A2B8B2B09F040C0F801808191811B
:1021A000A281B381892B8A2B8B2BA9F57E01F5E2C5
:1021B000EF0EF11CC7010E94CC14C7010E94391513
:1021C000C7010E94FD15CE010E94A50FCE010E94FD
:1021D00015107E012EE4E20EF11CC7010E949C0A3C
:1021E000FE01EC5AFF4F8081811103C0C7010E949C
:1021F0008B0A0E94DC16F8016083718382839383CB
:10220000FE01EC58FF4FCA58DF4F28813981621B0D
:10221000730B7183608380E036C00E94D016F50195
:102220002081620F711D811D911DF70160837183F3
:1022300082839383FE01E059FF4F40815181628187
:1022400073814F5F5F4F6F4F7F4F40835183628336
:102250007383F80110821182128213820E94DC16AD
:10226000FE01EA58FF4F6083718382839383CE011E
:102270000E942C09CE010A960E94DB09CE014896E5
:102280000E94950981E0DF91CF911F910F91FF90FE
:10229000EF90BF90AF909F908F9008950F931F93F2
:1022A000CF93DF938C01EC01C25BDF4FCE010E9424
:1022B0008B0A6BE677E0CE010E94EF18CE010E94F8
:1022C0009C0A8CB583608CBD8DB58E7F8DBD8FE3F0
:1022D00091E0EEEFFFE30995F801EC5AFF4F108211
:1022E00066E477E0CE010E943D19CE010E949C0A6F
:1022F000065F1F4FC8010E94DB0964E0C8010E940D
:10230000120A811107C062E370E080E090E00E9451
:10231000FF16F0CFDF91CF911F910F9108952F926B
:102320003F924F925F926F927F928F929F92AF9265
:10233000BF92CF92DF92EF92FF920F931F93CF93B2
:10234000DF93CDB7DEB729970FB6F894DEBF0FBE87
:10235000CDBF998788871B012A013C018FE6680E53
:10236000711CF3018081882309F402C181E0E885B2
:10237000F985EA5AFF4F8083E885F985EB5AFF4FCC
:102380001082E885F985EC5AFF4F1082E885F985BF
:10239000108E8F01025B1F4F61E0C8010E94E10AAD
:1023A000888599858D5A9F4F9C838B83C884D98457
:1023B00097E5C90ED11CE884F984E8E5EE0EF11C1E
:1023C000888599858E5A9F4F9A838983E885F985F8
:1023D000E059FF4FFE83ED8388849984FAE08F0EE5
:1023E000911CA884B98485E2A80EB11C88859985C2
:1023F0000E9494108823D1F3F1018491882321F065
:10240000EB81FC81508101C050E028EC37E040E0D6
:1024100060E0C8015F830E941A0D5F81411451047E
:1024200039F04CE0450F920160E0C8010E941A0D9E
:10243000F60110828CE0F7018083B101C8010E948F
:10244000EF18E981FA819081892F880F890F819592
:102450008D5AF6018083EB81FC819081892F880F52
:10246000890F8195835DF7018083ED81FE818081F5
:1024700084FF03C064EC77E002C060EC77E0C80141
:102480000E943D19E981FA819081892F880F890F77
:1024900081958D5AF6018083F70180818F5F80835B
:1024A000E885F98582A5882319F06CEB77E002C0F6
:1024B00068EB77E0C8010E943D19E981FA819081BB
:1024C000892F880F890F81958D5AF6018083F70136
:1024D00080818F5F808364EB77E0C8010E943D19A3
:1024E00065E0C4010E94120A882351F0E885F9854D
:1024F00062A56F5FC5010E947916C5010E9463162F
:1025000064E0C4010E94120A811113C0F30120810A
:10251000822F90E0A0E0B0E0ED81FE81408151810A
:1025200062817381481759076A077B07A8F02F3F1C
:1025300099F08FEFF3018083088519850B5D1F4F9C
:1025400060E0C8010E947614C8010E944D1681E027
:10255000E885F985808F0CC066E0C4010E94120AEC
:10256000882309F443CF888599850E944E1134CF82
:1025700029960FB6F894DEBF0FBECDBFDF91CF9185
:102580001F910F91FF90EF90DF90CF90BF90AF9091
:102590009F908F907F906F905F904F903F902F9083
:1025A0000895E0E8F7E72591349181E02130304C3F
:1025B00009F080E00895CF93DF93EC010E94D112DF
:1025C0009E01275A3F4FDE01A159BF4F882309F4CE
:1025D0003CC0E6E9F7E78491F9018083E7E9F7E792
:1025E000E491EC83E8E9F7E7E491ED83E9E9F7E7C3
:1025F000859194919F838E83EBE9F7E78591949180
:1026000099878887EDE9F7E7E491EBA7EEE9F7E72B
:10261000E491EAA7EFE9F7E7E491EC93E0EAF7E762
:10262000859194919D8F8C8FE2EAF7E78591949143
:102630009F8F8E8FE4EAF7E78591949199A388A301
:10264000E6EAF7E78591949120C08CE3F901808355
:102650001C822FEF2D8380E293E09F838E8384ED95
:1026600093E09987888781E08BA78AA72C938CEACF
:102670009DE09D8F8C8F8EED9DE09F8F8E8F84E7E8
:102680009EE099A388A38CE39FE09BA38AA3DF919C
:10269000CF910895CF92DF92EF920F93CF93DF9374
:1026A000EC01FC01E258FF4F82E38083349741E064
:1026B00050E060E070E040835183628373833B9716
:1026C0008FEF8083CE010E94DB12CE010E9424098D
:1026D0006FEFCE010E9428096E018AE0C80ED11C5E
:1026E000C6010E94CB09C6010E94DB09CE014896B3
:1026F0000E948B090EE0E02E0FE020E14BE06DE040
:10270000CE01825B9F4F0E94C60DA596CE010E940E
:10271000E21365E0C6010E94120A882351F060E0CE
:10272000CE01DF91CF910F91EF90DF90CF900C947D
:10273000791640E068E378E0CE01DF91CF910F9108
:10274000EF90DF90CF900C948114CF93DF9350E003
:10275000FA01EE0FFF1FE80FF91F37852089E32FDD
:10276000F22FE60FF11DE60FF11D25913491FA01CC
:10277000EE0FFF1FE80FF91F30A3278FF9016591B6
:102780007491FC01D481D69FC02D1124E40FF51F54
:10279000C1A3F901A591B4916B2F70E0EC2FF0E08B
:1027A000DC01A40FB51F6E177F0720F4F9012591F6
:1027B0003491C32FCD9FC02D11249296CC93DF91DD
:1027C000CF91089521E0FC01248324E020A72FE885
:1027D00038E0308B278740E060E00E94A51361E07D
:1027E00070E083E00E947F17E1EBF0E08081887F5A
:1027F00081608083F89410928000E1E8F0E010821C
:10280000109285001092840088E191E090938900F5
:10281000809388008081886080838081816080834C
:10282000EFE6F0E0808182608083789408950F93D2
:10283000FC01862F642F011129C08230D1F048F4A9
:10284000882391F0813011F540E0CF010F910C9475
:10285000A5138330A9F08430C9F48481489F602D8A
:102860001124658F268F12C04B3008F06AE0668B0A
:102870000DC08481489F602D1124618F228F06C076
:102880008481489F602D1124638F248F0F910895B8
:10289000FC0121110EC0648B8481489F402D1124BE
:1028A000458B15A214A213A281E0878B8093D503D8
:1028B000108E08958091D503882319F08091D2035A
:1028C00001C080E08093B4000895FC0161110DC047
:1028D000178A158A14A213A2108E1092D203109296
:1028E000D3031092D5030C945A140895CF93DF9319
:1028F000EC01611103C00E9465141982DF91CF9130
:1029000008950F931F93CF93DF93EC018B01411137
:102910000EC060E00E9476141E870D871B8A1A8AFB
:1029200081E0898389E08E8B198E1B8E1D8EDF914D
:10293000CF911F910F910895CF93DF93EC01611117
:1029400028C08881882329F18981811122C0898545
:102950002F819885E22FF92FE80FF11DE80FF11D67
:10296000859194918F3F2FEF920711F4188211C037
:102970009C879927880F991FEA85FB85E80FF91F27
:102980006591749140E0CE010E94811489858F5F2A
:102990008987DF91CF91089560E00C949C1460E0EA
:1029A0000C9476140F93CF93DF93EC0161115DC00B
:1029B0008981882309F459C08D89811156C02D85DC
:1029C0003E858A899B89880F991F820F931FFC017E
:1029D000859194910097D1F48989882321F01B8AED
:1029E0001A8AF90111C01982888160E0882331F0C8
:1029F000CE010E949C148A899B8925C0CE01DF915B
:102A0000CF910F910C94651485919491BC017695AA
:102A100067957695679580FF1DC0AC01A6E0569539
:102A20004795AA95E1F7292F2695269526952051B9
:102A30004F716F7000E0CE010E9417148A899B8944
:102A400001969B8B8A8B880F991FED85FE85E80F79
:102A5000F91FDACF492F6F7320E0CE010E9448148E
:102A60008A899B8901969B8B8A8BDF91CF910F91ED
:102A7000089560E00C94D214CF93DF93EC016111C0
:102A8000B9C08F89882309F4B5C08D89811105C02B
:102A9000CE01DF91CF910C94651481508D8B8DA167
:102AA000811138C08BA19CA101969C01220F331F7C
:102AB000EF8DF8A1E20FF31F25913491422F47705B
:102AC0004EA3A90163E0569547956A95E1F7BA01CF
:102AD00076956795232F269526952FA36F732C81C6
:102AE000629F602D11246DA341704093D1039CA37C
:102AF0008BA329A130E08217930760F08AA1882375
:102B000029F0281B31093CA32BA304C060E0CE01AF
:102B10000E9465148DA181508DA3288D2F5F288F71
:102B20004C893FA1340F8C85380F3A836B8D662317
:102B300061F070E0822F992787FD90950E94B31C69
:102B40008C8D869F300D11243A838A8190E0CB963C
:102B50006BE370E00E94B31C8A833E893B83698DDE
:102B6000662371F0772767FD7095822F992787FD7F
:102B700090950E94B31C8A8D869F300D11243B8353
:102B80006D8D662391F0822F992787FD909570E0D7
:102B90000E94B31CCB0162E070E00E94B31C2E8D3A
:102BA0009B81289F900D11249B838B814F3339F09B
:102BB0008A300CF089E087FD80E08B8301C01B82A6
:102BC000F894EA81F0E0EA5BF74FE491E093D403F4
:102BD00098A58D81989F802D11249B81899F802DA0
:102BE00011249EA1899F802D11248093D30380936B
:102BF000D2037894DF91CF91089560E00C943C1556
:102C00006091D303662321F18091D6038F5F809377
:102C1000D6039091D4038917D8F08091D50391E021
:102C200089278093D5031092D6038091D1038823FE
:102C300069F090910A0183E4989F802D1124895BAB
:102C400080930A010E94931C9093D2030C945A140F
:102C500008951F920F920FB60F9211242F933F9356
:102C60004F935F936F937F938F939F93AF93BF9394
:102C7000EF93FF930E940016FF91EF91BF91AF91E8
:102C80009F918F917F916F915F914F913F912F9184
:102C90000F900FBE0F901F901895CF93DF93EC010C
:102CA00060E00E94761487E898E09E878D871B8AF3
:102CB0001A8A81E0898389E08E8B198E1B8E1D8E86
:102CC000DF91CF910895CF93DF93EC0160E00E94F4
:102CD000761481E898E09E878D871B8A1A8A81E0A6
:102CE000898389E08E8B198E1B8E1D8EDF91CF918B
:102CF0000895FC01862F992787FD9095668170E0E5
:102D00006F5F7F4F0E94B31C858308951F920F92BF
:102D10000FB60F9211242F933F938F939F93AF93EE
:102D2000BF938091D8039091D903A091DA03B09119
:102D3000DB033091D70323E0230F2D3720F40196D6
:102D4000A11DB11D05C026E8230F0296A11DB11DCE
:102D50002093D7038093D8039093D903A093DA03E9
:102D6000B093DB038091DC039091DD03A091DE033F
:102D7000B091DF030196A11DB11D8093DC039093F8
:102D8000DD03A093DE03B093DF03BF91AF919F916A
:102D90008F913F912F910F900FBE0F901F9018951C
:102DA0002FB7F8946091D8037091D9038091DA031A
:102DB0009091DB032FBF08953FB7F8948091DC0317
:102DC0009091DD03A091DE03B091DF0326B5A89BAF
:102DD00005C02F3F19F00196A11DB11D3FBF662709
:102DE000782F892F9A2F620F711D811D911D42E04E
:102DF000660F771F881F991F4A95D1F70895CF92C4
:102E0000DF92EF92FF92CF93DF936B017C010E94E0
:102E1000DC16EB01C114D104E104F10489F00E9435
:102E2000651B0E94DC166C1B7D0B683E734090F3A3
:102E300081E0C81AD108E108F108C851DC4FEACF97
:102E4000DF91CF91FF90EF90DF90CF90089578942D
:102E500084B5826084BD84B5816084BD85B582609F
:102E600085BD85B5816085BDEEE6F0E0808181603D
:102E70008083E1E8F0E0108280818260808380813D
:102E800081608083E0E8F0E0808181608083E1EB15
:102E9000F0E0808184608083E0EBF0E080818160FD
:102EA0008083EAE7F0E080818460808380818260B3
:102EB000808380818160808380818068808310929C
:102EC000C10008958E3008F08E50877020910B015C
:102ED00090E4299F90011124822B80937C008091A3
:102EE0007A00806480937A0080917A0086FDFCCF1E
:102EF000809178002091790090E0922B08951F93A3
:102F0000CF93DF93182FEB0161E00E940718209701
:102F100011F460E004C0CF3FD10539F461E0812FA6
:102F2000DF91CF911F910C944018E12FF0E0E5560E
:102F3000F74FE491E330F9F048F4E130B9F0E230D2
:102F4000A1F584B5806284BDC8BD34C0E730E9F026
:102F5000E83019F1E43049F5809180008062809377
:102F60008000D0938B00C0938A0024C084B5806811
:102F700084BDC7BD1FC080918000806880938000A1
:102F8000D0938900C093880015C08091B0008068FC
:102F90008093B000C093B3000DC08091B0008062F8
:102FA0008093B000C093B40005C0C038D1050CF0C8
:102FB000B5CFAFCFDF91CF911F910895833081F0CE
:102FC00028F4813099F08230A1F008958730A9F07B
:102FD0008830B9F08430D1F4809180008F7D03C0B7
:102FE000809180008F7780938000089584B58F77DB
:102FF00002C084B58F7D84BD08958091B0008F7725
:1030000003C08091B0008F7D8093B0000895CF936E
:10301000DF9390E0FC01E155F74F2491FC01ED5363
:10302000F74F8491882349F190E0880F991FFC01A4
:10303000E551F74FA591B4918F51974FFC01C59180
:10304000D4919FB7611108C0F8948C912095822388
:103050008C93888182230AC0623051F4F8948C9159
:10306000322F309583238C938881822B888304C0F0
:10307000F8948C91822B8C939FBFDF91CF91089510
:103080000F931F93CF93DF931F92CDB7DEB7282FF7
:1030900030E0F901E556F74F8491F901E155F74F1A
:1030A0001491F901ED53F74F04910023C9F08823DF
:1030B00021F069830E94DE176981E02FF0E0EE0FB6
:1030C000FF1FEF51F74FA591B4919FB7F8948C91E2
:1030D000611103C01095812301C0812B8C939FBF88
:1030E0000F90DF91CF911F910F910895CF93DF93B0
:1030F000282F30E0F901E556F74F8491F901E155A9
:10310000F74FD491F901ED53F74FC491CC2391F0CF
:1031100081110E94DE17EC2FF0E0EE0FFF1FE95245
:10312000F74FA591B4912C912D2381E090E021F4EB
:1031300080E002C080E090E0DF91CF910895089593
:103140000E9427170E949F180E940205C0E0D0E04D
:103150000E949B082097E1F30E940000F9CF0C9495
:10316000281DCF92DF92EF92FF920F931F93CF9380
:10317000DF936C017A01EB01E60EF71E00E010E030
:10318000CE15DF0561F06991D601ED91FC910190BA
:10319000F081E02DC6010995080F191FF1CFC80174
:1031A000DF91CF911F910F91FF90EF90DF90CF9023
:1031B00008956115710581F0DB010D900020E9F79C
:1031C000AD0141505109461B570BDC01ED91FC91BB
:1031D0000280F381E02D099480E090E00895EF9261
:1031E000FF920F931F93CF93DF938C01FB01C0E0FD
:1031F000D0E064917F018FEFE81AF80A662361F04E
:10320000D801ED91FC910190F081E02DC801099564
:10321000C80FD91FF701EDCFCE01DF91CF911F91DC
:103220000F91FF90EF900895DC01ED91FC91DB018F
:1032300014964D915C9115976D917C910280F3816C
:10324000E02D0994DC01ED91FC910190F081E02DDD
:1032500009940F931F93CF93DF93EC016DE00E94CD
:1032600022198C016AE0CE010E942219800F911F61
:10327000DF91CF911F910F9108950F931F93CF93DB
:10328000DF93EC010E94EF188C01CE010E942919F6
:10329000800F911FDF91CF911F910F9108950F9390
:1032A0001F93CF93DF93EC010E9414198C01CE0180
:1032B0000E942919800F911FDF91CF911F910F91CB
:1032C00008958F929F92AF92BF92CF92DF92EF922A
:1032D000FF920F931F93CF93DF93CDB7DEB7A197E4
:1032E0000FB6F894DEBF0FBECDBF7C01C42EE52F14
:1032F000CB01D22E19A221E02D1510F02AE0D22EFA
:103300008E010F5D1F4F8D2C912CA12CB12C6C2D9B
:103310007E2FA50194010E94C71C8C2DD29E80197E
:103320001124015011098A3014F4805D01C0895CB8
:10333000F8018083211531054105510521F0C22E88
:10334000E32FCA01E4CFB801C7010E94D918A196A2
:103350000FB6F894DEBF0FBECDBFDF91CF911F91A6
:103360000F91FF90EF90DF90CF90BF90AF909F9024
:103370008F900895CF92DF92EF92FF920F931F9359
:10338000CF93DF93EC016A017B012115310579F4BC
:10339000E881F9810190F081E02D642FDF91CF91D8
:1033A0001F910F91FF90EF90DF90CF9009942A30FA
:1033B0003105E9F477FF1AC06DE20E9422198C01F1
:1033C00044275527BA014C195D096E097F092AE087
:1033D000CE010E946119800F911FDF91CF911F9143
:1033E0000F91FF90EF90DF90CF9008952AE0B70102
:1033F000A601CE01DF91CF911F910F91FF90EF9029
:10340000DF90CF900C9461199A01AB01662757FDAC
:103410006095762F0C94BA190F931F93CF93DF9377
:10342000EC019A01AB01662757FD6095762F0E944B
:10343000BA198C01CE010E942919800F911FDF91CA
:10344000CF911F910F9108952115310541F4DC01B1
:10345000ED91FC910190F081E02D642F09940C9482
:1034600061199A01AB0160E070E00C94241A009796
:1034700029F0BC0180E090E00C94A31E0895CF9346
:10348000DF9300D000D0CDB7DEB79B01AC01611552
:1034900071058105910569F069833A834B835C83EB
:1034A0000E949E1E29813A814B815C810E94E91C09
:1034B00003C060E070E0CB010F900F900F900F9071
:1034C000DF91CF9108954F925F926F927F92AF926A
:1034D000BF92CF92DF92EF92FF920F931F93CF9301
:1034E000DF93CDB7DEB729013A01621B730B840B62
:1034F000950B29893A894B895C892A193B094C0922
:103500005D09298B3A8B4B8B5C8B9B01AC016989E4
:103510007A898B899C890E94831CE418F508060926
:103520001709A80197010E94E91C2A0D3B1D4C1D9B
:103530005D1DCA01B901DF91CF911F910F91FF90DD
:10354000EF90DF90CF90BF90AF907F906F905F90A3
:103550004F900895FC01808191810C94C01DCF9300
:10356000DF93EC0188819981009711F00E94C01DC2
:10357000198218821D821C821B821A82DF91CF91D0
:1035800008950F931F93CF93DF93EC018B016F5F2F
:103590007F4F888199810E94AC1E009731F09983FA
:1035A00088831B830A8381E001C080E0DF91CF9193
:1035B0001F910F910895CF93DF93EC01888199813A
:1035C000892B29F08A819B818617970760F4CE01A9
:1035D0000E94C11A882341F08C819D81892B19F4A6
:1035E000E881F981108281E0DF91CF910895EF9217
:1035F000FF920F931F93CF93DF93EC017B018A011E
:10360000BA010E94DB1A811104C0CE010E94AF1AD8
:1036100007C01D830C83B701888199810E94881F90
:10362000CE01DF91CF911F910F91FF90EF90089500
:10363000FC0111821082138212821582148261159C
:10364000710559F0FB0101900020E9F7AF014150ED
:103650005109461B570B0C94F71A0895CF93DF932B
:10366000EC016115710561F0FB0101900020E9F7A3
:10367000AF0141505109461B570B0E94F71A02C077
:103680000E94AF1ACE01DF91CF910895FC012481F1
:103690003581232B31F421E061157105A1F0FB0187
:1036A00008C0FC01808191816115710531F421E030
:1036B000FC018081882339F005C00E947F1F21E032
:1036C000892B09F020E0822F0895089598D088F082
:1036D0009F5790F0B92F9927B751A0F0D1F0660FFE
:1036E000771F881F991F1AF0BA95C9F712C0B13019
:1036F00081F09FD0B1E008959CC0672F782F882774
:10370000B85F39F0B93FCCF3869577956795B39557
:10371000D9F73EF490958095709561957F4F8F4FC6
:103720009F4F0895E89409C097FB3EF490958095CB
:10373000709561957F4F8F4F9F4F9923A9F0F92F77
:1037400096E9BB279395F695879577956795B795F5
:10375000F111F8CFFAF4BB0F11F460FF1BC06F5FDB
:103760007F4F8F4F9F4F16C0882311F096E911C0ED
:10377000772321F09EE8872F762F05C0662371F00E
:1037800096E8862F70E060E02AF09A95660F771F22
:10379000881FDAF7880F9695879597F9089597F916
:1037A0009F6780E870E060E008959FEF80EC0895E7
:1037B00000240A9416161706180609060895002410
:1037C0000A9412161306140605060895092E03948A
:1037D000000C11F4882352F0BB0F40F4BF2B11F4FE
:1037E00060FF04C06F5F7F4F8F4F9F4F089557FD5D
:1037F0009058440F551F59F05F3F71F04795880F5F
:1038000097FB991F61F09F3F79F0879508951216F5
:1038100013061406551FF2CF4695F1DF08C01616A1
:1038200017061806991FF1CF869571056105089452
:103830000895E894BB2766277727CB0197F9089569
:103840000BD0C4CFB5DF28F0BADF18F0952309F00C
:10385000A6CFABCF1124EECFCADFA0F3959FD1F353
:10386000950F50E0551F629FF001729FBB27F00D2E
:10387000B11D639FAA27F00DB11DAA1F649F662783
:10388000B00DA11D661F829F2227B00DA11D621FD2
:10389000739FB00DA11D621F839FA00D611D221F8C
:1038A000749F3327A00D611D231F849F600D211D70
:1038B000822F762F6A2F11249F5750408AF0E1F013
:1038C00088234AF0EE0FFF1FBB1F661F771F881F5C
:1038D00091505040A9F79E3F510570F060CFAACF9C
:1038E0005F3FECF3983EDCF3869577956795B79547
:1038F000F795E7959F5FC1F7FE2B880F911D969571
:10390000879597F90895DB018F939F930E940E1D71
:10391000BF91AF91A29F800D911DA39F900DB29F6B
:10392000900D11240895991B79E004C0991F9617F2
:1039300008F0961B881F7A95C9F780950895AA1BF1
:10394000BB1B51E107C0AA1FBB1FA617B70710F08A
:10395000A61BB70B881F991F5A95A9F780959095BC
:10396000BC01CD01089597FB072E16F4009407D0F3
:1039700077FD09D00E949F1C07FC05D03EF490956E
:1039800081959F4F0895709561957F4F0895A1E2AD
:103990001A2EAA1BBB1BFD010DC0AA1FBB1FEE1FC9
:1039A000FF1FA217B307E407F50720F0A21BB30B14
:1039B000E40BF50B661F771F881F991F1A9469F790
:1039C00060957095809590959B01AC01BD01CF01EC
:1039D0000895052E97FB1EF400940E94001D57FDCC
:1039E00007D00E94C71C07FC03D04EF40C94001DA6
:1039F00050954095309521953F4F4F4F5F4F08951B
:103A000090958095709561957F4F8F4F9F4F08954A
:103A1000EE0FFF1F0590F491E02D09940E94191DEF
:103A2000A59F900DB49F900DA49F800D911D112412
:103A30000895A29FB001B39FC001A39F700D811D87
:103A40001124911DB29F700D811D1124911D0895A7
:103A5000CF93DF938230910510F482E090E0E09103
:103A6000E203F091E30320E030E0A0E0B0E0309723
:103A700039F14081518148175907B8F04817590763
:103A800071F482819381109729F013969C938E9301
:103A900012972CC09093E3038093E20327C0211573
:103AA000310531F04217530718F0A901DB0101C0BD
:103AB000EF019A01BD01DF010280F381E02DD7CF34
:103AC00021153105F9F0281B390B2430310580F41C
:103AD0008A819B816115710521F0FB0193838283AB
:103AE00004C09093E3038093E203FE01329644C046
:103AF000FE01E20FF31F8193919322503109398324
:103B000028833AC02091E0033091E103232B41F454
:103B100020910201309103013093E1032093E003EF
:103B200020910001309101012115310541F42DB79B
:103B30003EB74091040150910501241B350BE091E3
:103B4000E003F091E103E217F307A0F42E1B3F0B13
:103B50002817390778F0AC014E5F5F4F24173507FF
:103B600048F04E0F5F1F5093E1034093E0038193B1
:103B7000919302C0E0E0F0E0CF01DF91CF91089592
:103B8000CF93DF93009709F487C0FC01329713822B
:103B90001282C091E203D091E303209781F4208147
:103BA0003181280F391F8091E0039091E103821742
:103BB000930779F5F093E103E093E0036DC0DE0134
:103BC00020E030E0AE17BF0750F412964D915C91A3
:103BD00013979D014115510509F1DA01F3CFB38324
:103BE000A28340815181840F951F8A179B0771F42E
:103BF0008D919C911197840F951F029691838083DC
:103C000012968D919C911397938382832115310590
:103C100029F4F093E303E093E2033EC0D901139645
:103C2000FC93EE9312974D915D91A40FB51FEA1787
:103C3000FB0779F480819181840F951F0296D90149
:103C400011969C938E938281938113969C938E936D
:103C50001297E0E0F0E08A819B81009719F0FE0165
:103C6000EC01F9CFCE01029628813981820F931F92
:103C70002091E0033091E1032817390769F4309768
:103C800029F41092E3031092E20302C0138212821D
:103C9000D093E103C093E003DF91CF9108958F9219
:103CA0009F92AF92BF92CF92DF92EF92FF92CF930B
:103CB000DF93EC01688179818A819B8161157105AF
:103CC0008105910521F464E279ED8BE597E02DE122
:103CD00033EF41E050E00E94E91C49015A019B0189
:103CE000AC01A7EAB1E40E940E1D6B017C01ACEEB1
:103CF000B4EFA50194010E94921FC60ED71EE81EC4
:103D0000F91EF7FE06C081E0C81AD108E10880E874
:103D1000F80AC882D982EA82FB82C701B6019F777E
:103D2000DF91CF91FF90EF90DF90CF90BF90AF9059
:103D30009F908F9008950E944F1E089586E091E015
:103D40000E944F1E089560930601709307018093AF
:103D50000801909309010895A0E0B0E0E2EBFEE1D4
:103D60000C949B1FEC01CB01209719F40E94281D95
:103D7000B8C0FE01E60FF71F9E0122503109E2177D
:103D8000F30708F4ACC0D9010D911C9111970617E7
:103D90001707B8F00530110508F49FC0A80144507A
:103DA00051094617570708F498C002501109061B1D
:103DB000170B019311936D937C93CF010E94C01D4B
:103DC0008CC05B01A01AB10A4E01800E911EA09119
:103DD000E203B091E303612C712C60E070E0109776
:103DE00009F449C0A815B905C9F5ED90FC901197E3
:103DF000670142E0C40ED11CCA14DB0478F147010C
:103E00008A189B08640142E0C40ED11C1296BC9033
:103E100012971396AC91B5E0CB16D10440F0B28264
:103E2000A38391828082D9018D939C9309C00E5FF8
:103E30001F4F0E0D1F1DF90111830083EB2DFA2F6B
:103E40006115710531F0DB011396FC93EE93129727
:103E500044C0F093E303E093E2033FC06D917C9193
:103E600011976616770608F43B01BD0112960D9076
:103E7000BC91A02DB4CF6091E0037091E10368156F
:103E80007905E9F468167906D0F440910001509163
:103E900001014115510541F44DB75EB76091040130
:103EA00070910501461B570BE417F507C0F4F0931A
:103EB000E103E093E003F901918380830EC00E9447
:103EC000281D7C01009759F0A801BE010E94761FB1
:103ED000CE010E94C01DC70104C0CE0102C080E017
:103EE00090E0CDB7DEB7EEE00C94B71FFB01DC012C
:103EF00002C001900D9241505040D8F70895FB0147
:103F0000DC018D91019080190110D9F3990B08956E
:103F1000FB01DC0101900D920020E1F70895B7FF4D
:103F20000C940E1D0E940E1D821B930B08952F9260
:103F30003F924F925F926F927F928F929F92AF9239
:103F4000BF92CF92DF92EF92FF920F931F93CF9386
:103F5000DF93CDB7DEB7CA1BDB0B0FB6F894DEBF1D
:103F60000FBECDBF09942A88398848885F846E8443
:103F70007D848C849B84AA84B984C884DF80EE808D
:103F8000FD800C811B81AA81B981CE0FD11D0FB696
:103F9000F894DEBF0FBECDBFED010895F894FFCFBA
:103FA0000000E403800001000000010161004245BF
:103FB000535441545441434B2100535550455241B1
:103FC000545441434B21006D004D4147494321006A
:103FD0004E4F204D50210000000000300FB1184C12
:063FE0004F414445520070
:00000001FF
